{
  "contractName": "blockchaintabs",
  "abi": [
    {
      "anonymous": false,
      "inputs": [
        {
          "indexed": false,
          "internalType": "uint256",
          "name": "id",
          "type": "uint256"
        },
        {
          "indexed": false,
          "internalType": "string",
          "name": "hash",
          "type": "string"
        },
        {
          "indexed": false,
          "internalType": "string",
          "name": "content",
          "type": "string"
        },
        {
          "indexed": false,
          "internalType": "address",
          "name": "author",
          "type": "address"
        }
      ],
      "name": "ImageCreated",
      "type": "event"
    },
    {
      "inputs": [],
      "name": "imageCount",
      "outputs": [
        {
          "internalType": "uint256",
          "name": "",
          "type": "uint256"
        }
      ],
      "stateMutability": "view",
      "type": "function",
      "constant": true
    },
    {
      "inputs": [
        {
          "internalType": "string",
          "name": "_imgHash",
          "type": "string"
        },
        {
          "internalType": "string",
          "name": "_content",
          "type": "string"
        }
      ],
      "name": "uploadImage",
      "outputs": [],
      "stateMutability": "nonpayable",
      "type": "function"
    },
    {
      "inputs": [],
      "name": "getData",
      "outputs": [
        {
          "components": [
            {
              "internalType": "uint256",
              "name": "id",
              "type": "uint256"
            },
            {
              "internalType": "string",
              "name": "hash",
              "type": "string"
            },
            {
              "internalType": "string",
              "name": "content",
              "type": "string"
            },
            {
              "internalType": "address",
              "name": "author",
              "type": "address"
            }
          ],
          "internalType": "struct blockchaintabs.Image[]",
          "name": "",
          "type": "tuple[]"
        }
      ],
      "stateMutability": "view",
      "type": "function",
      "constant": true
    }
  ],
  "bytecode": "0x6080604052600060015534801561001557600080fd5b50610e3a806100256000396000f3fe608060405234801561001057600080fd5b50600436106100415760003560e01c80633bc5de301461004657806392053b6314610064578063a91b831414610082575b600080fd5b61004e61009e565b60405161005b91906106f8565b60405180910390f35b61006c610281565b6040516100799190610729565b60405180910390f35b61009c6004803603810190610097919061088d565b610287565b005b60606003805480602002602001604051908101604052809291908181526020016000905b828210156102785783829060005260206000209060040201604051806080016040529081600082015481526020016001820180546100ff90610934565b80601f016020809104026020016040519081016040528092919081815260200182805461012b90610934565b80156101785780601f1061014d57610100808354040283529160200191610178565b820191906000526020600020905b81548152906001019060200180831161015b57829003601f168201915b5050505050815260200160028201805461019190610934565b80601f01602080910402602001604051908101604052809291908181526020018280546101bd90610934565b801561020a5780601f106101df5761010080835404028352916020019161020a565b820191906000526020600020905b8154815290600101906020018083116101ed57829003601f168201915b505050505081526020016003820160009054906101000a900473ffffffffffffffffffffffffffffffffffffffff1673ffffffffffffffffffffffffffffffffffffffff1673ffffffffffffffffffffffffffffffffffffffff1681525050815260200190600101906100c2565b50505050905090565b60015481565b600082511161029557600080fd5b60008151116102a357600080fd5b600073ffffffffffffffffffffffffffffffffffffffff163373ffffffffffffffffffffffffffffffffffffffff16036102dc57600080fd5b600160008154809291906102ef90610994565b9190505550604051806080016040528060015481526020018381526020018281526020013373ffffffffffffffffffffffffffffffffffffffff168152506002600060015481526020019081526020016000206000820151816000015560208201518160010190816103619190610b88565b5060408201518160020190816103779190610b88565b5060608201518160030160006101000a81548173ffffffffffffffffffffffffffffffffffffffff021916908373ffffffffffffffffffffffffffffffffffffffff1602179055509050506003600260006001548152602001908152602001600020908060018154018082558091505060019003906000526020600020906004020160009091909190915060008201548160000155600182018160010190816104209190610c70565b50600282018160020190816104359190610c70565b506003820160009054906101000a900473ffffffffffffffffffffffffffffffffffffffff168160030160006101000a81548173ffffffffffffffffffffffffffffffffffffffff021916908373ffffffffffffffffffffffffffffffffffffffff16021790555050507fb82a9f3a70bc97d2ca962d6c417b770c2158b2014d3f028d4de74b315692d4c76001548383336040516104d69493929190610db1565b60405180910390a15050565b600081519050919050565b600082825260208201905092915050565b6000819050602082019050919050565b6000819050919050565b6105218161050e565b82525050565b600081519050919050565b600082825260208201905092915050565b60005b83811015610561578082015181840152602081019050610546565b60008484015250505050565b6000601f19601f8301169050919050565b600061058982610527565b6105938185610532565b93506105a3818560208601610543565b6105ac8161056d565b840191505092915050565b600073ffffffffffffffffffffffffffffffffffffffff82169050919050565b60006105e2826105b7565b9050919050565b6105f2816105d7565b82525050565b60006080830160008301516106106000860182610518565b5060208301518482036020860152610628828261057e565b91505060408301518482036040860152610642828261057e565b915050606083015161065760608601826105e9565b508091505092915050565b600061066e83836105f8565b905092915050565b6000602082019050919050565b600061068e826104e2565b61069881856104ed565b9350836020820285016106aa856104fe565b8060005b858110156106e657848403895281516106c78582610662565b94506106d283610676565b925060208a019950506001810190506106ae565b50829750879550505050505092915050565b600060208201905081810360008301526107128184610683565b905092915050565b6107238161050e565b82525050565b600060208201905061073e600083018461071a565b92915050565b6000604051905090565b600080fd5b600080fd5b600080fd5b600080fd5b7f4e487b7100000000000000000000000000000000000000000000000000000000600052604160045260246000fd5b61079a8261056d565b810181811067ffffffffffffffff821117156107b9576107b8610762565b5b80604052505050565b60006107cc610744565b90506107d88282610791565b919050565b600067ffffffffffffffff8211156107f8576107f7610762565b5b6108018261056d565b9050602081019050919050565b82818337600083830152505050565b600061083061082b846107dd565b6107c2565b90508281526020810184848401111561084c5761084b61075d565b5b61085784828561080e565b509392505050565b600082601f83011261087457610873610758565b5b813561088484826020860161081d565b91505092915050565b600080604083850312156108a4576108a361074e565b5b600083013567ffffffffffffffff8111156108c2576108c1610753565b5b6108ce8582860161085f565b925050602083013567ffffffffffffffff8111156108ef576108ee610753565b5b6108fb8582860161085f565b9150509250929050565b7f4e487b7100000000000000000000000000000000000000000000000000000000600052602260045260246000fd5b6000600282049050600182168061094c57607f821691505b60208210810361095f5761095e610905565b5b50919050565b7f4e487b7100000000000000000000000000000000000000000000000000000000600052601160045260246000fd5b600061099f8261050e565b91507fffffffffffffffffffffffffffffffffffffffffffffffffffffffffffffffff82036109d1576109d0610965565b5b600182019050919050565b60008190508160005260206000209050919050565b60006020601f8301049050919050565b600082821b905092915050565b600060088302610a3e7fffffffffffffffffffffffffffffffffffffffffffffffffffffffffffffffff82610a01565b610a488683610a01565b95508019841693508086168417925050509392505050565b6000819050919050565b6000610a85610a80610a7b8461050e565b610a60565b61050e565b9050919050565b6000819050919050565b610a9f83610a6a565b610ab3610aab82610a8c565b848454610a0e565b825550505050565b600090565b610ac8610abb565b610ad3818484610a96565b505050565b5b81811015610af757610aec600082610ac0565b600181019050610ad9565b5050565b601f821115610b3c57610b0d816109dc565b610b16846109f1565b81016020851015610b25578190505b610b39610b31856109f1565b830182610ad8565b50505b505050565b600082821c905092915050565b6000610b5f60001984600802610b41565b1980831691505092915050565b6000610b788383610b4e565b9150826002028217905092915050565b610b9182610527565b67ffffffffffffffff811115610baa57610ba9610762565b5b610bb48254610934565b610bbf828285610afb565b600060209050601f831160018114610bf25760008415610be0578287015190505b610bea8582610b6c565b865550610c52565b601f198416610c00866109dc565b60005b82811015610c2857848901518255600182019150602085019450602081019050610c03565b86831015610c455784890151610c41601f891682610b4e565b8355505b6001600288020188555050505b505050505050565b600081549050610c6981610934565b9050919050565b818103610c7e575050610d56565b610c8782610c5a565b67ffffffffffffffff811115610ca057610c9f610762565b5b610caa8254610934565b610cb5828285610afb565b6000601f831160018114610ce45760008415610cd2578287015490505b610cdc8582610b6c565b865550610d4f565b601f198416610cf2876109dc565b9650610cfd866109dc565b60005b82811015610d2557848901548255600182019150600185019450602081019050610d00565b86831015610d425784890154610d3e601f891682610b4e565b8355505b6001600288020188555050505b5050505050505b565b600082825260208201905092915050565b6000610d7482610527565b610d7e8185610d58565b9350610d8e818560208601610543565b610d978161056d565b840191505092915050565b610dab816105d7565b82525050565b6000608082019050610dc6600083018761071a565b8181036020830152610dd88186610d69565b90508181036040830152610dec8185610d69565b9050610dfb6060830184610da2565b9594505050505056fea264697066735822122015d53ecf4b92562caeb3809e779c125a79234dcc47f1989a629e9b47e380690c64736f6c63430008110033",
  "immutableReferences": {},
  "source": "//SPDX-License-Identifier: MIT\r\npragma solidity ^0.8.0;\r\n\r\ncontract blockchaintabs {\r\n    string private name;\r\n    uint256 public imageCount = 0;\r\n    mapping(uint256 => Image) private images;\r\n\r\n    struct Image {\r\n        uint256 id;\r\n        string hash;\r\n        string content;\r\n        address author;\r\n    }\r\n    Image[] newImages;\r\n    event ImageCreated(uint256 id, string hash, string content, address author);\r\n\r\n    function uploadImage(string memory _imgHash, string memory _content)\r\n        public\r\n    {\r\n        // Make sure the image hash exists\r\n        require(bytes(_imgHash).length > 0);\r\n        // Make sure image description exists\r\n        require(bytes(_content).length > 0);\r\n        // Make sure uploader address exists\r\n        require(msg.sender != address(0));\r\n\r\n        // Increment image id\r\n        imageCount++;\r\n\r\n        // Add Image to the contract\r\n        images[imageCount] = Image(\r\n            imageCount,\r\n            _imgHash,\r\n            _content,\r\n            address(msg.sender)\r\n        );\r\n        newImages.push(images[imageCount]);\r\n        // Trigger an event\r\n        emit ImageCreated(imageCount, _imgHash, _content, address(msg.sender));\r\n    }\r\n\r\n    function getData() public view returns (Image[] memory) {\r\n        return newImages;\r\n    }\r\n}\r\n",
  "sourcePath": "C:\\Users\\USER\\blockchaintabs\\blockchaintabs2\\blockchaintabs2\\contracts\\blockchaintabs.sol",
  "compiler": {
    "name": "solc",
    "version": "0.8.17+commit.8df45f5f.Emscripten.clang"
  },
  "schemaVersion": "3.4.11",
  "updatedAt": "2023-02-08T21:06:06.113Z",
  "networkType": "ethereum",
  "devdoc": {
    "kind": "dev",
    "methods": {},
    "version": 1
  },
  "userdoc": {
    "kind": "user",
    "methods": {},
    "version": 1
  }
}