{
  "contractName": "blockchaintabs",
  "abi": [
    {
      "inputs": [],
      "name": "commentCounter",
      "outputs": [
        {
          "internalType": "uint256",
          "name": "",
          "type": "uint256"
        }
      ],
      "stateMutability": "view",
      "type": "function",
      "constant": true
    },
    {
      "inputs": [
        {
          "internalType": "uint256",
          "name": "",
          "type": "uint256"
        }
      ],
      "name": "comments",
      "outputs": [
        {
          "internalType": "uint256",
          "name": "id",
          "type": "uint256"
        },
        {
          "internalType": "uint256",
          "name": "postId",
          "type": "uint256"
        },
        {
          "internalType": "address",
          "name": "user",
          "type": "address"
        },
        {
          "internalType": "string",
          "name": "content",
          "type": "string"
        },
        {
          "internalType": "uint256",
          "name": "timestamp",
          "type": "uint256"
        }
      ],
      "stateMutability": "view",
      "type": "function",
      "constant": true
    },
    {
      "inputs": [
        {
          "internalType": "uint256",
          "name": "",
          "type": "uint256"
        }
      ],
      "name": "deletedPosts",
      "outputs": [
        {
          "internalType": "bool",
          "name": "",
          "type": "bool"
        }
      ],
      "stateMutability": "view",
      "type": "function",
      "constant": true
    },
    {
      "inputs": [],
      "name": "postCount",
      "outputs": [
        {
          "internalType": "uint256",
          "name": "",
          "type": "uint256"
        }
      ],
      "stateMutability": "view",
      "type": "function",
      "constant": true
    },
    {
      "inputs": [],
      "name": "postCounter",
      "outputs": [
        {
          "internalType": "uint256",
          "name": "",
          "type": "uint256"
        }
      ],
      "stateMutability": "view",
      "type": "function",
      "constant": true
    },
    {
      "inputs": [
        {
          "internalType": "uint256",
          "name": "",
          "type": "uint256"
        }
      ],
      "name": "postIds",
      "outputs": [
        {
          "internalType": "uint256",
          "name": "",
          "type": "uint256"
        }
      ],
      "stateMutability": "view",
      "type": "function",
      "constant": true
    },
    {
      "inputs": [
        {
          "internalType": "uint256",
          "name": "",
          "type": "uint256"
        }
      ],
      "name": "posts",
      "outputs": [
        {
          "internalType": "uint256",
          "name": "id",
          "type": "uint256"
        },
        {
          "internalType": "address",
          "name": "owner",
          "type": "address"
        },
        {
          "internalType": "string",
          "name": "content",
          "type": "string"
        },
        {
          "internalType": "bytes",
          "name": "imageHash",
          "type": "bytes"
        },
        {
          "internalType": "uint256",
          "name": "timestamp",
          "type": "uint256"
        }
      ],
      "stateMutability": "view",
      "type": "function",
      "constant": true
    },
    {
      "inputs": [
        {
          "internalType": "uint256",
          "name": "",
          "type": "uint256"
        }
      ],
      "name": "registeredUsers",
      "outputs": [
        {
          "internalType": "address",
          "name": "",
          "type": "address"
        }
      ],
      "stateMutability": "view",
      "type": "function",
      "constant": true
    },
    {
      "inputs": [
        {
          "internalType": "string",
          "name": "",
          "type": "string"
        }
      ],
      "name": "users",
      "outputs": [
        {
          "internalType": "bytes32",
          "name": "hashedPassword",
          "type": "bytes32"
        },
        {
          "internalType": "string",
          "name": "email",
          "type": "string"
        },
        {
          "internalType": "string",
          "name": "name",
          "type": "string"
        },
        {
          "internalType": "address",
          "name": "myaddress",
          "type": "address"
        }
      ],
      "stateMutability": "view",
      "type": "function",
      "constant": true
    },
    {
      "inputs": [
        {
          "internalType": "string",
          "name": "_email",
          "type": "string"
        },
        {
          "internalType": "string",
          "name": "_password",
          "type": "string"
        },
        {
          "internalType": "string",
          "name": "_name",
          "type": "string"
        }
      ],
      "name": "register",
      "outputs": [],
      "stateMutability": "nonpayable",
      "type": "function"
    },
    {
      "inputs": [
        {
          "internalType": "string",
          "name": "_email",
          "type": "string"
        },
        {
          "internalType": "string",
          "name": "_password",
          "type": "string"
        }
      ],
      "name": "login",
      "outputs": [
        {
          "internalType": "bool",
          "name": "",
          "type": "bool"
        }
      ],
      "stateMutability": "view",
      "type": "function",
      "constant": true
    },
    {
      "inputs": [
        {
          "internalType": "address",
          "name": "user",
          "type": "address"
        }
      ],
      "name": "isUserRegistered",
      "outputs": [
        {
          "internalType": "bool",
          "name": "",
          "type": "bool"
        }
      ],
      "stateMutability": "view",
      "type": "function",
      "constant": true
    },
    {
      "inputs": [
        {
          "internalType": "string",
          "name": "content",
          "type": "string"
        },
        {
          "internalType": "bytes",
          "name": "image",
          "type": "bytes"
        }
      ],
      "name": "createPost",
      "outputs": [],
      "stateMutability": "nonpayable",
      "type": "function"
    },
    {
      "inputs": [
        {
          "internalType": "uint256",
          "name": "postId",
          "type": "uint256"
        },
        {
          "internalType": "string",
          "name": "content",
          "type": "string"
        }
      ],
      "name": "createComment",
      "outputs": [],
      "stateMutability": "nonpayable",
      "type": "function"
    },
    {
      "inputs": [
        {
          "internalType": "string",
          "name": "keyword",
          "type": "string"
        }
      ],
      "name": "searchPosts",
      "outputs": [
        {
          "internalType": "uint256[]",
          "name": "matchingPostIds",
          "type": "uint256[]"
        }
      ],
      "stateMutability": "view",
      "type": "function",
      "constant": true
    },
    {
      "inputs": [
        {
          "internalType": "bytes",
          "name": "haystack",
          "type": "bytes"
        },
        {
          "internalType": "bytes",
          "name": "needle",
          "type": "bytes"
        }
      ],
      "name": "contains",
      "outputs": [
        {
          "internalType": "bool",
          "name": "",
          "type": "bool"
        }
      ],
      "stateMutability": "pure",
      "type": "function",
      "constant": true
    },
    {
      "inputs": [],
      "name": "getPostsByLoggedInUser",
      "outputs": [
        {
          "components": [
            {
              "internalType": "uint256",
              "name": "id",
              "type": "uint256"
            },
            {
              "internalType": "address",
              "name": "owner",
              "type": "address"
            },
            {
              "internalType": "string",
              "name": "content",
              "type": "string"
            },
            {
              "internalType": "bytes",
              "name": "imageHash",
              "type": "bytes"
            },
            {
              "internalType": "uint256",
              "name": "timestamp",
              "type": "uint256"
            }
          ],
          "internalType": "struct blockchaintabs.Post[]",
          "name": "",
          "type": "tuple[]"
        },
        {
          "components": [
            {
              "internalType": "uint256",
              "name": "id",
              "type": "uint256"
            },
            {
              "internalType": "uint256",
              "name": "postId",
              "type": "uint256"
            },
            {
              "internalType": "address",
              "name": "user",
              "type": "address"
            },
            {
              "internalType": "string",
              "name": "content",
              "type": "string"
            },
            {
              "internalType": "uint256",
              "name": "timestamp",
              "type": "uint256"
            }
          ],
          "internalType": "struct blockchaintabs.Comment[]",
          "name": "",
          "type": "tuple[]"
        }
      ],
      "stateMutability": "view",
      "type": "function",
      "constant": true
    },
    {
      "inputs": [],
      "name": "getAllPostsAndComments",
      "outputs": [
        {
          "components": [
            {
              "internalType": "uint256",
              "name": "id",
              "type": "uint256"
            },
            {
              "internalType": "address",
              "name": "owner",
              "type": "address"
            },
            {
              "internalType": "string",
              "name": "content",
              "type": "string"
            },
            {
              "internalType": "bytes",
              "name": "imageHash",
              "type": "bytes"
            },
            {
              "internalType": "uint256",
              "name": "timestamp",
              "type": "uint256"
            }
          ],
          "internalType": "struct blockchaintabs.Post[]",
          "name": "",
          "type": "tuple[]"
        }
      ],
      "stateMutability": "view",
      "type": "function",
      "constant": true
    }
  ],
  "bytecode": "0x608060405234801561001057600080fd5b50612ea8806100206000396000f3fe608060405234801561001057600080fd5b50600436106101165760003560e01c806358467dbc116100a25780638dcd5a29116100715780638dcd5a29146103345780638ebb4c15146103535780639186adef146103875780639a32ab77146103a3578063b8c0a1ef146103d357610116565b806358467dbc14610283578063689e1c03146102b35780637259e0f8146102e65780637649ed8f1461031657610116565b80633578d5d3116100e95780633578d5d3146101bb5780633aba03da146101eb57806340a179851461021b5780634cd08d031461023757806350cde8ef1461025357610116565b806309b3d75e1461011b5780630b1e7f8314610139578063163f75221461016d57806317906c2e1461019d575b600080fd5b6101236103f1565b6040516101309190611b5a565b60405180910390f35b610153600480360381019061014e9190611bb5565b6103f7565b604051610164959493929190611d08565b60405180910390f35b61018760048036038101906101829190611d95565b61055d565b6040516101949190611ddd565b60405180910390f35b6101a561060b565b6040516101b29190611b5a565b60405180910390f35b6101d560048036038101906101d09190611bb5565b610611565b6040516101e29190611ddd565b60405180910390f35b61020560048036038101906102009190611f2d565b610631565b6040516102129190612034565b60405180910390f35b61023560048036038101906102309190612056565b6107fc565b005b610251600480360381019061024c91906120b2565b610924565b005b61026d60048036038101906102689190611bb5565b610ac7565b60405161027a9190611b5a565b60405180910390f35b61029d60048036038101906102989190612159565b610aeb565b6040516102aa9190611ddd565b60405180910390f35b6102cd60048036038101906102c89190611f2d565b610d6a565b6040516102dd94939291906121ea565b60405180910390f35b61030060048036038101906102fb9190611bb5565b610ee0565b60405161030d919061223d565b60405180910390f35b61031e610f1f565b60405161032b919061243a565b60405180910390f35b61033c6111a3565b60405161034a929190612594565b60405180910390f35b61036d60048036038101906103689190611bb5565b611672565b60405161037e9594939291906125cb565b60405180910390f35b6103a1600480360381019061039c91906126c6565b611750565b005b6103bd60048036038101906103b8919061273e565b6118bb565b6040516103ca9190611ddd565b60405180910390f35b6103db611a47565b6040516103e89190611b5a565b60405180910390f35b60055481565b60026020528060005260406000206000915090508060000154908060010160009054906101000a900473ffffffffffffffffffffffffffffffffffffffff1690806002018054610446906127e5565b80601f0160208091040260200160405190810160405280929190818152602001828054610472906127e5565b80156104bf5780601f10610494576101008083540402835291602001916104bf565b820191906000526020600020905b8154815290600101906020018083116104a257829003601f168201915b5050505050908060030180546104d4906127e5565b80601f0160208091040260200160405190810160405280929190818152602001828054610500906127e5565b801561054d5780601f106105225761010080835404028352916020019161054d565b820191906000526020600020905b81548152906001019060200180831161053057829003601f168201915b5050505050908060040154905085565b600080600090505b600180549050811015610600578273ffffffffffffffffffffffffffffffffffffffff166001828154811061059d5761059c612816565b5b9060005260206000200160009054906101000a900473ffffffffffffffffffffffffffffffffffffffff1673ffffffffffffffffffffffffffffffffffffffff16036105ed576001915050610606565b80806105f890612874565b915050610565565b50600090505b919050565b60085481565b60096020528060005260406000206000915054906101000a900460ff1681565b6060600067ffffffffffffffff81111561064e5761064d611e02565b5b60405190808252806020026020018201604052801561067c5781602001602082028036833780820191505090505b50905060005b6007805490508110156107f6576000600782815481106106a5576106a4612816565b5b9060005260206000200154905061075a6002600083815260200190815260200160002060020180546106d6906127e5565b80601f0160208091040260200160405190810160405280929190818152602001828054610702906127e5565b801561074f5780601f106107245761010080835404028352916020019161074f565b820191906000526020600020905b81548152906001019060200180831161073257829003601f168201915b5050505050856118bb565b156107e2576000835190506060935060018161077691906128bc565b67ffffffffffffffff81111561078f5761078e611e02565b5b6040519080825280602002602001820160405280156107bd5781602001602082028036833780820191505090505b509350818482815181106107d4576107d3612816565b5b602002602001018181525050505b5080806107ee90612874565b915050610682565b50919050565b60006006600081548092919061081190612874565b9190505590506040518060a001604052808281526020018481526020013373ffffffffffffffffffffffffffffffffffffffff1681526020018381526020014281525060036000838152602001908152602001600020600082015181600001556020820151816001015560408201518160020160006101000a81548173ffffffffffffffffffffffffffffffffffffffff021916908373ffffffffffffffffffffffffffffffffffffffff16021790555060608201518160030190816108d79190612a9c565b506080820151816004015590505060046000848152602001908152602001600020819080600181540180825580915050600190039060005260206000200160009091909190915055505050565b60006002836040516020016109399190612baa565b6040516020818303038152906040526040516109559190612bfd565b602060405180830381855afa158015610972573d6000803e3d6000fd5b5050506040513d601f19601f820116820180604052508101906109959190612c40565b9050600015156109a43361055d565b1515146109e6576040517f08c379a00000000000000000000000000000000000000000000000000000000081526004016109dd90612cb9565b60405180910390fd5b600060405180608001604052808381526020018681526020018481526020013373ffffffffffffffffffffffffffffffffffffffff16815250905080600086604051610a329190612baa565b9081526020016040518091039020600082015181600001556020820151816001019081610a5f9190612a9c565b506040820151816002019081610a759190612a9c565b5060608201518160030160006101000a81548173ffffffffffffffffffffffffffffffffffffffff021916908373ffffffffffffffffffffffffffffffffffffffff1602179055509050505050505050565b60078181548110610ad757600080fd5b906000526020600020016000915090505481565b600080600084604051610afe9190612baa565b908152602001604051809103902060405180608001604052908160008201548152602001600182018054610b31906127e5565b80601f0160208091040260200160405190810160405280929190818152602001828054610b5d906127e5565b8015610baa5780601f10610b7f57610100808354040283529160200191610baa565b820191906000526020600020905b815481529060010190602001808311610b8d57829003601f168201915b50505050508152602001600282018054610bc3906127e5565b80601f0160208091040260200160405190810160405280929190818152602001828054610bef906127e5565b8015610c3c5780601f10610c1157610100808354040283529160200191610c3c565b820191906000526020600020905b815481529060010190602001808311610c1f57829003601f168201915b505050505081526020016003820160009054906101000a900473ffffffffffffffffffffffffffffffffffffffff1673ffffffffffffffffffffffffffffffffffffffff1673ffffffffffffffffffffffffffffffffffffffff1681525050905060011515610caa3361055d565b151514610cec576040517f08c379a0000000000000000000000000000000000000000000000000000000008152600401610ce390612d25565b60405180910390fd5b8060000151600284604051602001610d049190612baa565b604051602081830303815290604052604051610d209190612bfd565b602060405180830381855afa158015610d3d573d6000803e3d6000fd5b5050506040513d601f19601f82011682018060405250810190610d609190612c40565b1491505092915050565b600081805160208101820180518482526020830160208501208183528095505050505050600091509050806000015490806001018054610da9906127e5565b80601f0160208091040260200160405190810160405280929190818152602001828054610dd5906127e5565b8015610e225780601f10610df757610100808354040283529160200191610e22565b820191906000526020600020905b815481529060010190602001808311610e0557829003601f168201915b505050505090806002018054610e37906127e5565b80601f0160208091040260200160405190810160405280929190818152602001828054610e63906127e5565b8015610eb05780601f10610e8557610100808354040283529160200191610eb0565b820191906000526020600020905b815481529060010190602001808311610e9357829003601f168201915b5050505050908060030160009054906101000a900473ffffffffffffffffffffffffffffffffffffffff16905084565b60018181548110610ef057600080fd5b906000526020600020016000915054906101000a900473ffffffffffffffffffffffffffffffffffffffff1681565b6060600060085467ffffffffffffffff811115610f3f57610f3e611e02565b5b604051908082528060200260200182016040528015610f7857816020015b610f65611a4d565b815260200190600190039081610f5d5790505b5090506000805b60085481101561119a576009600082815260200190815260200160002060009054906101000a900460ff1661118757600260008281526020019081526020016000206040518060a0016040529081600082015481526020016001820160009054906101000a900473ffffffffffffffffffffffffffffffffffffffff1673ffffffffffffffffffffffffffffffffffffffff1673ffffffffffffffffffffffffffffffffffffffff16815260200160028201805461103c906127e5565b80601f0160208091040260200160405190810160405280929190818152602001828054611068906127e5565b80156110b55780601f1061108a576101008083540402835291602001916110b5565b820191906000526020600020905b81548152906001019060200180831161109857829003601f168201915b505050505081526020016003820180546110ce906127e5565b80601f01602080910402602001604051908101604052809291908181526020018280546110fa906127e5565b80156111475780601f1061111c57610100808354040283529160200191611147565b820191906000526020600020905b81548152906001019060200180831161112a57829003601f168201915b5050505050815260200160048201548152505083838151811061116d5761116c612816565b5b6020026020010181905250818061118390612874565b9250505b808061119290612874565b915050610f7f565b50819250505090565b606080600060055467ffffffffffffffff8111156111c4576111c3611e02565b5b6040519080825280602002602001820160405280156111fd57816020015b6111ea611a4d565b8152602001906001900390816111e25790505b509050600060065467ffffffffffffffff81111561121e5761121d611e02565b5b60405190808252806020026020018201604052801561125757816020015b611244611a92565b81526020019060019003908161123c5790505b5090506000805b600554811015611664573373ffffffffffffffffffffffffffffffffffffffff166002600083815260200190815260200160002060010160009054906101000a900473ffffffffffffffffffffffffffffffffffffffff1673ffffffffffffffffffffffffffffffffffffffff160361165157600260008281526020019081526020016000206040518060a0016040529081600082015481526020016001820160009054906101000a900473ffffffffffffffffffffffffffffffffffffffff1673ffffffffffffffffffffffffffffffffffffffff1673ffffffffffffffffffffffffffffffffffffffff16815260200160028201805461135f906127e5565b80601f016020809104026020016040519081016040528092919081815260200182805461138b906127e5565b80156113d85780601f106113ad576101008083540402835291602001916113d8565b820191906000526020600020905b8154815290600101906020018083116113bb57829003601f168201915b505050505081526020016003820180546113f1906127e5565b80601f016020809104026020016040519081016040528092919081815260200182805461141d906127e5565b801561146a5780601f1061143f5761010080835404028352916020019161146a565b820191906000526020600020905b81548152906001019060200180831161144d57829003601f168201915b505050505081526020016004820154815250508483815181106114905761148f612816565b5b602002602001018190525081806114a690612874565b9250506000805b60065481101561164e57600260008481526020019081526020016000206000015460036000838152602001908152602001600020600101540361163b57600360008281526020019081526020016000206040518060a001604052908160008201548152602001600182015481526020016002820160009054906101000a900473ffffffffffffffffffffffffffffffffffffffff1673ffffffffffffffffffffffffffffffffffffffff1673ffffffffffffffffffffffffffffffffffffffff168152602001600382018054611582906127e5565b80601f01602080910402602001604051908101604052809291908181526020018280546115ae906127e5565b80156115fb5780601f106115d0576101008083540402835291602001916115fb565b820191906000526020600020905b8154815290600101906020018083116115de57829003601f168201915b5050505050815260200160048201548152505085838151811061162157611620612816565b5b6020026020010181905250818061163790612874565b9250505b808061164690612874565b9150506114ad565b50505b808061165c90612874565b91505061125e565b508282945094505050509091565b60036020528060005260406000206000915090508060000154908060010154908060020160009054906101000a900473ffffffffffffffffffffffffffffffffffffffff16908060030180546116c7906127e5565b80601f01602080910402602001604051908101604052809291908181526020018280546116f3906127e5565b80156117405780601f1061171557610100808354040283529160200191611740565b820191906000526020600020905b81548152906001019060200180831161172357829003601f168201915b5050505050908060040154905085565b60006005600081548092919061176590612874565b9190505590506040518060a001604052808281526020013373ffffffffffffffffffffffffffffffffffffffff16815260200184815260200183815260200142815250600260008381526020019081526020016000206000820151816000015560208201518160010160006101000a81548173ffffffffffffffffffffffffffffffffffffffff021916908373ffffffffffffffffffffffffffffffffffffffff16021790555060408201518160020190816118219190612a9c565b5060608201518160030190816118379190612da0565b5060808201518160040155905050600067ffffffffffffffff8111156118605761185f611e02565b5b60405190808252806020026020018201604052801561188e5781602001602082028036833780820191505090505b506004600083815260200190815260200160002090805190602001906118b5929190611ad7565b50505050565b600080600090505b8351811015611a3b57826000815181106118e0576118df612816565b5b602001015160f81c60f81b7effffffffffffffffffffffffffffffffffffffffffffffffffffffffffffff19168482815181106119205761191f612816565b5b602001015160f81c60f81b7effffffffffffffffffffffffffffffffffffffffffffffffffffffffffffff191603611a28576000600190506000600190505b8451811015611a145784818151811061197b5761197a612816565b5b602001015160f81c60f81b7effffffffffffffffffffffffffffffffffffffffffffffffffffffffffffff19168682856119b591906128bc565b815181106119c6576119c5612816565b5b602001015160f81c60f81b7effffffffffffffffffffffffffffffffffffffffffffffffffffffffffffff191614611a015760009150611a14565b8080611a0c90612874565b91505061195f565b508015611a2657600192505050611a41565b505b8080611a3390612874565b9150506118c3565b50600090505b92915050565b60065481565b6040518060a0016040528060008152602001600073ffffffffffffffffffffffffffffffffffffffff1681526020016060815260200160608152602001600081525090565b6040518060a001604052806000815260200160008152602001600073ffffffffffffffffffffffffffffffffffffffff16815260200160608152602001600081525090565b828054828255906000526020600020908101928215611b13579160200282015b82811115611b12578251825591602001919060010190611af7565b5b509050611b209190611b24565b5090565b5b80821115611b3d576000816000905550600101611b25565b5090565b6000819050919050565b611b5481611b41565b82525050565b6000602082019050611b6f6000830184611b4b565b92915050565b6000604051905090565b600080fd5b600080fd5b611b9281611b41565b8114611b9d57600080fd5b50565b600081359050611baf81611b89565b92915050565b600060208284031215611bcb57611bca611b7f565b5b6000611bd984828501611ba0565b91505092915050565b600073ffffffffffffffffffffffffffffffffffffffff82169050919050565b6000611c0d82611be2565b9050919050565b611c1d81611c02565b82525050565b600081519050919050565b600082825260208201905092915050565b60005b83811015611c5d578082015181840152602081019050611c42565b60008484015250505050565b6000601f19601f8301169050919050565b6000611c8582611c23565b611c8f8185611c2e565b9350611c9f818560208601611c3f565b611ca881611c69565b840191505092915050565b600081519050919050565b600082825260208201905092915050565b6000611cda82611cb3565b611ce48185611cbe565b9350611cf4818560208601611c3f565b611cfd81611c69565b840191505092915050565b600060a082019050611d1d6000830188611b4b565b611d2a6020830187611c14565b8181036040830152611d3c8186611c7a565b90508181036060830152611d508185611ccf565b9050611d5f6080830184611b4b565b9695505050505050565b611d7281611c02565b8114611d7d57600080fd5b50565b600081359050611d8f81611d69565b92915050565b600060208284031215611dab57611daa611b7f565b5b6000611db984828501611d80565b91505092915050565b60008115159050919050565b611dd781611dc2565b82525050565b6000602082019050611df26000830184611dce565b92915050565b600080fd5b600080fd5b7f4e487b7100000000000000000000000000000000000000000000000000000000600052604160045260246000fd5b611e3a82611c69565b810181811067ffffffffffffffff82111715611e5957611e58611e02565b5b80604052505050565b6000611e6c611b75565b9050611e788282611e31565b919050565b600067ffffffffffffffff821115611e9857611e97611e02565b5b611ea182611c69565b9050602081019050919050565b82818337600083830152505050565b6000611ed0611ecb84611e7d565b611e62565b905082815260208101848484011115611eec57611eeb611dfd565b5b611ef7848285611eae565b509392505050565b600082601f830112611f1457611f13611df8565b5b8135611f24848260208601611ebd565b91505092915050565b600060208284031215611f4357611f42611b7f565b5b600082013567ffffffffffffffff811115611f6157611f60611b84565b5b611f6d84828501611eff565b91505092915050565b600081519050919050565b600082825260208201905092915050565b6000819050602082019050919050565b611fab81611b41565b82525050565b6000611fbd8383611fa2565b60208301905092915050565b6000602082019050919050565b6000611fe182611f76565b611feb8185611f81565b9350611ff683611f92565b8060005b8381101561202757815161200e8882611fb1565b975061201983611fc9565b925050600181019050611ffa565b5085935050505092915050565b6000602082019050818103600083015261204e8184611fd6565b905092915050565b6000806040838503121561206d5761206c611b7f565b5b600061207b85828601611ba0565b925050602083013567ffffffffffffffff81111561209c5761209b611b84565b5b6120a885828601611eff565b9150509250929050565b6000806000606084860312156120cb576120ca611b7f565b5b600084013567ffffffffffffffff8111156120e9576120e8611b84565b5b6120f586828701611eff565b935050602084013567ffffffffffffffff81111561211657612115611b84565b5b61212286828701611eff565b925050604084013567ffffffffffffffff81111561214357612142611b84565b5b61214f86828701611eff565b9150509250925092565b600080604083850312156121705761216f611b7f565b5b600083013567ffffffffffffffff81111561218e5761218d611b84565b5b61219a85828601611eff565b925050602083013567ffffffffffffffff8111156121bb576121ba611b84565b5b6121c785828601611eff565b9150509250929050565b6000819050919050565b6121e4816121d1565b82525050565b60006080820190506121ff60008301876121db565b81810360208301526122118186611c7a565b905081810360408301526122258185611c7a565b90506122346060830184611c14565b95945050505050565b60006020820190506122526000830184611c14565b92915050565b600081519050919050565b600082825260208201905092915050565b6000819050602082019050919050565b61228d81611c02565b82525050565b600082825260208201905092915050565b60006122af82611c23565b6122b98185612293565b93506122c9818560208601611c3f565b6122d281611c69565b840191505092915050565b600082825260208201905092915050565b60006122f982611cb3565b61230381856122dd565b9350612313818560208601611c3f565b61231c81611c69565b840191505092915050565b600060a08301600083015161233f6000860182611fa2565b5060208301516123526020860182612284565b506040830151848203604086015261236a82826122a4565b9150506060830151848203606086015261238482826122ee565b91505060808301516123996080860182611fa2565b508091505092915050565b60006123b08383612327565b905092915050565b6000602082019050919050565b60006123d082612258565b6123da8185612263565b9350836020820285016123ec85612274565b8060005b85811015612428578484038952815161240985826123a4565b9450612414836123b8565b925060208a019950506001810190506123f0565b50829750879550505050505092915050565b6000602082019050818103600083015261245481846123c5565b905092915050565b600081519050919050565b600082825260208201905092915050565b6000819050602082019050919050565b600060a0830160008301516124a06000860182611fa2565b5060208301516124b36020860182611fa2565b5060408301516124c66040860182612284565b50606083015184820360608601526124de82826122a4565b91505060808301516124f36080860182611fa2565b508091505092915050565b600061250a8383612488565b905092915050565b6000602082019050919050565b600061252a8261245c565b6125348185612467565b93508360208202850161254685612478565b8060005b85811015612582578484038952815161256385826124fe565b945061256e83612512565b925060208a0199505060018101905061254a565b50829750879550505050505092915050565b600060408201905081810360008301526125ae81856123c5565b905081810360208301526125c2818461251f565b90509392505050565b600060a0820190506125e06000830188611b4b565b6125ed6020830187611b4b565b6125fa6040830186611c14565b818103606083015261260c8185611c7a565b905061261b6080830184611b4b565b9695505050505050565b600067ffffffffffffffff8211156126405761263f611e02565b5b61264982611c69565b9050602081019050919050565b600061266961266484612625565b611e62565b90508281526020810184848401111561268557612684611dfd565b5b612690848285611eae565b509392505050565b600082601f8301126126ad576126ac611df8565b5b81356126bd848260208601612656565b91505092915050565b600080604083850312156126dd576126dc611b7f565b5b600083013567ffffffffffffffff8111156126fb576126fa611b84565b5b61270785828601611eff565b925050602083013567ffffffffffffffff81111561272857612727611b84565b5b61273485828601612698565b9150509250929050565b6000806040838503121561275557612754611b7f565b5b600083013567ffffffffffffffff81111561277357612772611b84565b5b61277f85828601612698565b925050602083013567ffffffffffffffff8111156127a05761279f611b84565b5b6127ac85828601612698565b9150509250929050565b7f4e487b7100000000000000000000000000000000000000000000000000000000600052602260045260246000fd5b600060028204905060018216806127fd57607f821691505b6020821081036128105761280f6127b6565b5b50919050565b7f4e487b7100000000000000000000000000000000000000000000000000000000600052603260045260246000fd5b7f4e487b7100000000000000000000000000000000000000000000000000000000600052601160045260246000fd5b600061287f82611b41565b91507fffffffffffffffffffffffffffffffffffffffffffffffffffffffffffffffff82036128b1576128b0612845565b5b600182019050919050565b60006128c782611b41565b91506128d283611b41565b92508282019050808211156128ea576128e9612845565b5b92915050565b60008190508160005260206000209050919050565b60006020601f8301049050919050565b600082821b905092915050565b6000600883026129527fffffffffffffffffffffffffffffffffffffffffffffffffffffffffffffffff82612915565b61295c8683612915565b95508019841693508086168417925050509392505050565b6000819050919050565b600061299961299461298f84611b41565b612974565b611b41565b9050919050565b6000819050919050565b6129b38361297e565b6129c76129bf826129a0565b848454612922565b825550505050565b600090565b6129dc6129cf565b6129e78184846129aa565b505050565b5b81811015612a0b57612a006000826129d4565b6001810190506129ed565b5050565b601f821115612a5057612a21816128f0565b612a2a84612905565b81016020851015612a39578190505b612a4d612a4585612905565b8301826129ec565b50505b505050565b600082821c905092915050565b6000612a7360001984600802612a55565b1980831691505092915050565b6000612a8c8383612a62565b9150826002028217905092915050565b612aa582611c23565b67ffffffffffffffff811115612abe57612abd611e02565b5b612ac882546127e5565b612ad3828285612a0f565b600060209050601f831160018114612b065760008415612af4578287015190505b612afe8582612a80565b865550612b66565b601f198416612b14866128f0565b60005b82811015612b3c57848901518255600182019150602085019450602081019050612b17565b86831015612b595784890151612b55601f891682612a62565b8355505b6001600288020188555050505b505050505050565b600081905092915050565b6000612b8482611c23565b612b8e8185612b6e565b9350612b9e818560208601611c3f565b80840191505092915050565b6000612bb68284612b79565b915081905092915050565b600081905092915050565b6000612bd782611cb3565b612be18185612bc1565b9350612bf1818560208601611c3f565b80840191505092915050565b6000612c098284612bcc565b915081905092915050565b612c1d816121d1565b8114612c2857600080fd5b50565b600081519050612c3a81612c14565b92915050565b600060208284031215612c5657612c55611b7f565b5b6000612c6484828501612c2b565b91505092915050565b7f5573657220616c72656164792072656769737465726564000000000000000000600082015250565b6000612ca3601783611c2e565b9150612cae82612c6d565b602082019050919050565b60006020820190508181036000830152612cd281612c96565b9050919050565b7f55736572206e6f74207265676973746572656400000000000000000000000000600082015250565b6000612d0f601383611c2e565b9150612d1a82612cd9565b602082019050919050565b60006020820190508181036000830152612d3e81612d02565b9050919050565b60008190508160005260206000209050919050565b601f821115612d9b57612d6c81612d45565b612d7584612905565b81016020851015612d84578190505b612d98612d9085612905565b8301826129ec565b50505b505050565b612da982611cb3565b67ffffffffffffffff811115612dc257612dc1611e02565b5b612dcc82546127e5565b612dd7828285612d5a565b600060209050601f831160018114612e0a5760008415612df8578287015190505b612e028582612a80565b865550612e6a565b601f198416612e1886612d45565b60005b82811015612e4057848901518255600182019150602085019450602081019050612e1b565b86831015612e5d5784890151612e59601f891682612a62565b8355505b6001600288020188555050505b50505050505056fea2646970667358221220b7ee482cac2bff30d6cfe50aae941e3300a86ad4dc56aa358d80167cdaa5ee1c64736f6c63430008110033",
  "immutableReferences": {},
  "source": "//SPDX-License-Identifier: UNLICENSED\r\npragma solidity ^0.8.0;\r\n\r\n\r\ncontract blockchaintabs {\r\n    // Struct to represent a user account\r\n    struct User {\r\n        bytes32 hashedPassword;\r\n        string email;\r\n        string name;\r\n        address myaddress;\r\n    }\r\n\r\n    // Mapping from email address to user account\r\n    mapping(string => User) public users;\r\n\r\n    // Register a new user account\r\n    function register(string memory _email, string memory _password, string memory _name) public {\r\n        // Hash the password\r\n        bytes32 hashedPassword = sha256(abi.encodePacked(_password));\r\n       require(isUserRegistered(msg.sender)==false, \"User already registered\");\r\n        // Create a new user account\r\n        User memory user = User({\r\n       hashedPassword: hashedPassword,\r\n        email: _email,\r\n        name: _name,\r\n       myaddress: msg.sender\r\n        });\r\n\r\n        // Store the user account in the mapping\r\n        users[_email] = user;\r\n    }\r\n\r\n    // Login to an existing user account\r\n    function login(string memory _email, string memory _password) public view returns (bool) {\r\n        // Retrieve the user account for the given email address\r\n        User memory user = users[_email];\r\n  require(isUserRegistered(msg.sender)==true, \"User not registered\");\r\n\r\n        // Check that the provided password matches the hashed password in the user account\r\n        return sha256(abi.encodePacked(_password)) == user.hashedPassword;\r\n    }\r\n// \r\n\r\n\r\n\r\n\r\n  address[] public registeredUsers;\r\n\r\nfunction isUserRegistered(address user) public view returns (bool) {\r\n    for(uint i=0;i< registeredUsers.length;i++){\r\n        if(registeredUsers[i]==user)\r\n            return true;\r\n    }\r\n    return false;\r\n}\r\n\r\n    // Struct for a post\r\n    struct Post {\r\n        uint id;\r\n        address owner;\r\n        string content;\r\n        bytes imageHash; // Add a field for the image hash\r\n        uint timestamp;\r\n    }\r\n\r\n    // Struct for a comment\r\n    struct Comment {\r\n    uint id;\r\n    uint postId;\r\n    address user;\r\n    string content;\r\n    uint timestamp;\r\n}\r\n\r\n   \r\n      mapping(uint256 => Post) public posts;\r\n   \r\n    // Mapping from comment id to comment struct\r\n    mapping(uint => Comment) public comments;\r\n    mapping(uint => uint[]) postComments;\r\n\r\n\r\n\r\n    // Counter for post id\r\n    uint public postCounter;\r\n    // Counter for comment id\r\n    uint public commentCounter;\r\n\r\n function createPost(string memory content, bytes memory image) public {\r\n    // Increment the post counter and set the post id\r\n    uint id = postCounter++;\r\n    // Create a new post struct and add it to the mapping\r\n    posts[id] = Post(id, msg.sender, content, image, block.timestamp);\r\n    postComments[id] = new uint[](0);\r\n}\r\nfunction createComment(uint postId, string memory content) public {\r\n    // Increment the comment counter and set the comment id\r\n    uint id = commentCounter++;\r\n    // Create a new comment struct and add it to the mapping\r\n      comments[id] = Comment(id, postId, msg.sender, content, block.timestamp);\r\n    postComments[postId].push(id);\r\n}\r\n\r\n\r\n \r\n\r\n  // Array to store the IDs of all posts\r\n  uint[] public postIds;\r\n\r\n\r\n    \r\n\r\n  \r\n\r\n\r\n  function searchPosts(string memory keyword) public view returns (uint[] memory matchingPostIds) {\r\n  // Create an empty array to store the IDs of matching posts\r\n  matchingPostIds = new uint[](0);\r\n\r\n  // Loop through all the posts and check if the keyword appears in the content\r\n  for (uint i = 0; i < postIds.length; i++) {\r\n    uint id = postIds[i];\r\n    if (contains(bytes(posts[id].content), bytes(keyword))) {\r\n      // If the keyword appears in the content, add the ID to the matching post IDs array\r\n      uint length = matchingPostIds.length;\r\n      delete matchingPostIds;\r\n      matchingPostIds = new uint[](length + 1);\r\n      matchingPostIds[length] = id;\r\n    }\r\n  }\r\n\r\n  // Return the array of matching post IDs\r\n  return matchingPostIds;\r\n}\r\n\r\n\r\n  function contains(bytes memory haystack, bytes memory needle) public pure returns (bool) {\r\n  for (uint i = 0; i < haystack.length; i++) {\r\n    if (haystack[i] == needle[0]) {\r\n      bool ismatch = true;\r\n      for (uint j = 1; j < needle.length; j++) {\r\n        if (haystack[i + j] != needle[j]) {\r\n          ismatch = false;\r\n          break;\r\n        }\r\n      }\r\n      if (ismatch) {\r\n        return true;\r\n      }\r\n    }\r\n  }\r\n  return false;\r\n}\r\n\r\nfunction getPostsByLoggedInUser() public view returns (Post[] memory, Comment[] memory) {\r\n    // Create empty arrays to store the posts and comments\r\n    Post[] memory postsByUser = new Post[](postCounter);\r\n    Comment[] memory commentsByUser = new Comment[](commentCounter);\r\n\r\n    // Iterate over all posts and add only the ones that belong to the logged in user\r\n    uint postIndex = 0;\r\n    for (uint i = 0; i < postCounter; i++) {\r\n        if (posts[i].owner == msg.sender) {\r\n            // Add the post to the array using the postIndex variable\r\n            postsByUser[postIndex] = posts[i];\r\n            postIndex++;\r\n\r\n            // Iterate over all comments and add only the ones that belong to the post\r\n            uint commentIndex = 0;\r\n            for (uint j = 0; j < commentCounter; j++) {\r\n                if (comments[j].postId == posts[i].id) {\r\n                    // Add the comment to the array using the commentIndex variable\r\n                    commentsByUser[commentIndex] = comments[j];\r\n                    commentIndex++;\r\n                }\r\n            }\r\n        }\r\n    }\r\n\r\n    // Return the arrays of posts and comments by the logged in user\r\n    return (postsByUser, commentsByUser);\r\n\r\n}\r\n\r\n\r\n\r\nuint public postCount;\r\n\r\nmapping(uint => bool) public deletedPosts;\r\n\r\nfunction getAllPostsAndComments() public view returns (Post[] memory) {\r\n    Post[] memory result = new Post[](postCount);\r\n    uint i = 0;\r\n    for (uint j = 0; j < postCount; j++) {\r\n        if(!deletedPosts[j]){\r\n            result[i] = posts[j];\r\n            i++;\r\n        }\r\n    }\r\n    return result;\r\n}\r\n\r\n\r\n\r\n}\r\n\r\n  \r\n\r\n\r\n\r\n\r\n\r\n\r\n   \r\n\r\n   \r\n\r\n\r\n\r\n\r\n\r\n\r\n\r\n\r\n\r\n",
  "sourcePath": "C:\\Users\\USER\\Documents\\blockchain_Tabs\\contracts\\blockchaintabs.sol",
  "compiler": {
    "name": "solc",
    "version": "0.8.17+commit.8df45f5f.Emscripten.clang"
  },
  "schemaVersion": "3.4.11",
  "updatedAt": "2023-01-23T14:40:53.676Z",
  "networkType": "ethereum",
  "devdoc": {
    "kind": "dev",
    "methods": {},
    "version": 1
  },
  "userdoc": {
    "kind": "user",
    "methods": {},
    "version": 1
  }
}